---
title: 文件头 hex 字节表
published: 2025-11-22
updated: 2025-11-23
description: "文件头 hex 字节表、文件头字节码信息、File Signatures、file magic numbers"
image: ""
tags: [file, codec, 文件头]
category: "misc"
draft: false
---

# 文件头 hex 字节表、文件头字节码信息、File Signatures、file magic numbers

| 十六进制签名                                                                                                                                                                                     | ISO 8859-1                                                                | 间隔字节                       | 文件扩展名                                                                                                                               | 描述                                                                                                                                                                                 |
| ------------------------------------------------------------------------------------------------------------------------------------------------------------------------------------------------ | ------------------------------------------------------------------------- | ------------------------------ | ---------------------------------------------------------------------------------------------------------------------------------------- | ------------------------------------------------------------------------------------------------------------------------------------------------------------------------------------ |
| 23 21                                                                                                                                                                                            | ＃！                                                                      | 0                              |                                                                                                                                          | 在 shebang（＃！） 之后传递给程序的脚本或数据                                                                                                                                        |
| a1 b2 c3 d4<br><br>d4 c3 b2 a1                                                                                                                                                                   | ¡<br><br>ÔÃ¡¡                                                             | 0                              | pcap                                                                                                                                     | Libpcap 文件格式                                                                                                                                                                     |
| 0a 0d 0d 0a                                                                                                                                                                                      | ....                                                                      | 0                              | pcapng                                                                                                                                   | PCAP 下一代转储文件格式                                                                                                                                                              |
| ed ab ee db                                                                                                                                                                                      | í«îÛ                                                                      | 0                              | rpm                                                                                                                                      | RedHat 软件包管理器（RPM）软件包                                                                                                                                                     |
| 53 51 4c 69 74 65 20 66 6f 72 6d 61 74 20 33 00                                                                                                                                                  | SQLite format 3.                                                          | 0                              | sqlitedb<br>sqlite<br>db                                                                                                                 | SQLite 数据库                                                                                                                                                                        |
| 53 50 30 31                                                                                                                                                                                      | SP01                                                                      | 0                              | bin                                                                                                                                      | 亚马逊 Kindle 更新包                                                                                                                                                                 |
| 00                                                                                                                                                                                               | .                                                                         | 0                              | PIC、PIF、SEA、YTR                                                                                                                       | IBM Storyboard 位图文件<br>Windows 程序信息文件<br>Mac Stuffit 自解压存档<br>IRIS OCR 数据文件                                                                                       |
| 00 00 00 00 00 00 00 0000 00 00 00 00 00 00 0000 00 00 00 00 00 00 00                                                                                                                            | ........................                                                  | 11                             | PDB                                                                                                                                      | PalmPilot 数据库/文档文件                                                                                                                                                            |
| BE BA FE CA                                                                                                                                                                                      | ¾ºþÊ                                                                      | 0                              | DBA                                                                                                                                      | Palm 桌面日历存档                                                                                                                                                                    |
| 00 01 42 44                                                                                                                                                                                      | ..BD                                                                      | 0                              | DBA                                                                                                                                      | Palm Desktop 存档                                                                                                                                                                    |
| 00 01 44 54                                                                                                                                                                                      | ..DT                                                                      | 0                              | TDA                                                                                                                                      | Palm 桌面日历存档                                                                                                                                                                    |
| 54 44 46 24                                                                                                                                                                                      | TDF $                                                                     | 0                              | TDF $                                                                                                                                    | 电报桌面文件                                                                                                                                                                         |
| 54 44 45 46                                                                                                                                                                                      | TDEF                                                                      | 0                              | TDEF                                                                                                                                     | 电报桌面加密文件                                                                                                                                                                     |
| 00 01 00 00                                                                                                                                                                                      | ....                                                                      | 0                              |                                                                                                                                          | Palm Desktop 数据文件（访问格式）                                                                                                                                                    |
| 00 00 01 00                                                                                                                                                                                      | ....                                                                      | 0                              | ico                                                                                                                                      | 以 ICO 文件格式编码的计算机图标[6]                                                                                                                                                   |
| 66 74 79 70 33 67                                                                                                                                                                                | ftyp3g                                                                    | 4                              | 3gp<br>3g2                                                                                                                               | 第三代合作伙伴计划 3GPP 和 3GPP2 多媒体文件                                                                                                                                          |
| 1F 9D                                                                                                                                                                                            | ..                                                                        | 0                              | z<br>tar.z                                                                                                                               | 压缩文件（通常为 tar zip）<br>使用 Lempel-Ziv-Welch 算法                                                                                                                             |
| 1F A0                                                                                                                                                                                            | .                                                                         | 0                              | z<br>tar.z                                                                                                                               | 压缩文件（通常为 tar zip）<br>使用 LZH 算法                                                                                                                                          |
| 42 41 43 4B 4D 49 4B 4544 49 53 4B                                                                                                                                                               | BACKMIKE DISK                                                             | 0                              | bac                                                                                                                                      | 包含在 Amiga 上使用 AmiBack 完成的备份的文件或磁带.它通常与带有目录的索引文件（idx）配对.                                                                                            |
| 42 5A 68                                                                                                                                                                                         | Z                                                                         | 0                              | bz2                                                                                                                                      | 使用 Bzip2 算法 压缩文件                                                                                                                                                             |
| 47 49 46 38 37 61<br><br>47 49 46 38 39 61                                                                                                                                                       | GIF87a<br><br>GIF89a                                                      | 0                              | gif                                                                                                                                      | 以图形交换格式（GIF）编码的图像文件                                                                                                                                                  |
| 49 49 2A 00<br><br>（小端格式）<br><br><br>4D 4D 00 2A<br><br>（大端格式）                                                                                                                       | II _.<br><br>MM._                                                         | 0                              | TIF<br>TIFF                                                                                                                              | 标记图像文件格式（TIFF）                                                                                                                                                             |
| 49 49 2A 00 10 00 00 0043 52                                                                                                                                                                     | II \* .....CR                                                             | 0                              | cr2                                                                                                                                      | 佳能 RAW 格式版本 2                                                                                                                                                                  |
| 80 2A 5F D7                                                                                                                                                                                      | .\* \_.                                                                   | 0                              | cin                                                                                                                                      | 柯达 Cineon 图片                                                                                                                                                                     |
| 52 4E 43 01<br><br>52 4E 43 02                                                                                                                                                                   | RNC.                                                                      | 0                              |                                                                                                                                          | 使用 Rob Northen 压缩（版本 1 和 2）算法 压缩文件                                                                                                                                    |
| 53 44 50 58<br><br>（大端格式）<br><br><br>58 50 44 53<br><br>（小端格式）                                                                                                                       | SDPX<br><br>XPDS                                                          | 0                              | dpx                                                                                                                                      | SMPTE DPX 映像                                                                                                                                                                       |
| 76 2F 31 01                                                                                                                                                                                      | v / 1.                                                                    | 0                              | exr                                                                                                                                      | OpenEXR 图片                                                                                                                                                                         |
| 42 50 47 FB                                                                                                                                                                                      | BPGû                                                                      | 0                              | bpg                                                                                                                                      | 更好的便携式图形格式                                                                                                                                                                 |
| FF D8 FF DB<br><br><br><br><br>FF D8 FF E0 00 10 4A 46 49 46 00 01<br><br><br>`FF D8 FF EE`<br><br>FF D8 FF E1 ?? ?? 45 78 69 66 00 00                                                           | ÿØÿÛ<br><br><br><br><br>J.ÿ..JFIF..<br><br><br>`ÿØÿî`<br><br>ÿØÿá..Exif.. | 0                              | jpg<br>jpeg                                                                                                                              | JPEG 原始或 JFIF 或 Exif 文件格式                                                                                                                                                    |
| 46 4F 52 4D ?? ?? ?? ?? 49 4C 42 4D                                                                                                                                                              | FORM....ILBM                                                              | 0 任何                         | ILBM<br>LBM<br>IBM<br>IFF                                                                                                                | IFF 交错位图图像                                                                                                                                                                     |
| 46 4F 52 4D ?? ?? ?? ?? 38 53 56 58                                                                                                                                                              | FORM....8SVX                                                              | 0 任何                         | 8svx<br>8sv<br>svx<br>snd<br>iff                                                                                                         | IFF 8 位采样语音                                                                                                                                                                     |
| 46 4F 52 4D ?? ?? ?? ?? 41 43 42 4D                                                                                                                                                              | FORM....煤层气                                                            | 0 任何                         | acbm<br>iff                                                                                                                              | Amiga 连续位图                                                                                                                                                                       |
| 46 4F 52 4D ?? ?? ?? ?? 41 4E 42 4D                                                                                                                                                              | FORM....ACBM                                                              | 0 任何                         | Anbm<br>iff                                                                                                                              | IFF 动画位图                                                                                                                                                                         |
| 46 4F 52 4D ?? ?? ?? ??41 4E 49 4D                                                                                                                                                               | FORM....ANIM                                                              | 0 任何                         | anim<br>IFF                                                                                                                              | IFF CEL 动画                                                                                                                                                                         |
| 46 4F 52 4D ?? ?? ?? ?? 46 41 58 58                                                                                                                                                              | FORM....FAXX                                                              | 0 任何                         | faxx<br>fax<br>IFF                                                                                                                       | IFF 传真图像                                                                                                                                                                         |
| 46 4F 52 4D ?? ?? ?? ?? 46 54 58 54                                                                                                                                                              | FORM....FTXT                                                              | 0 任何                         | ftxt<br>iff                                                                                                                              | IFF 格式的文字                                                                                                                                                                       |
| 46 4F 52 4D ?? ?? ?? ?? 53 4D 55 53                                                                                                                                                              | FORM....SMUS                                                              | 0 任何                         | smus<br>smu<br>mus<br>iff                                                                                                                | IFF 简单乐谱                                                                                                                                                                         |
| 46 4F 52 4D ?? ?? ?? ?? 43 4D 55 53                                                                                                                                                              | FORM....CMUS                                                              | 0 任何                         | 的 CMU<br>亩<br>IFF                                                                                                                      | IFF 乐谱                                                                                                                                                                             |
| 46 4F 52 4D ?? ?? ?? ?? 59 55 56 4E                                                                                                                                                              | FORM....yuvn                                                              | 0 任何                         | yuvn<br>YUV<br>IFF                                                                                                                       | IFF YUV 图片                                                                                                                                                                         |
| 46 4F 52 4D ?? ?? ?? ?? 46 41 4E 54                                                                                                                                                              | FORM....FANT                                                              | 0 任何                         | iff                                                                                                                                      | Amiga Fantavision 电影                                                                                                                                                               |
| 46 4F 52 4D ?? ?? ?? ?? 41 49 46 46                                                                                                                                                              | FORM....AIFF                                                              | 0 任何                         | AIFF<br>aif<br>aifc<br>snd<br>iff                                                                                                        | 音频交换文件格式                                                                                                                                                                     |
| 49 4E 44 58                                                                                                                                                                                      | INDX                                                                      | 0                              | IDX                                                                                                                                      | 将文件索引到包含在 Amiga 上使用 AmiBack 完成的备份的文件或磁带.                                                                                                                      |
| 4C 5A 49 50                                                                                                                                                                                      | LZIP                                                                      | 0                              | lz                                                                                                                                       | lzip 压缩文件                                                                                                                                                                        |
| 4D 5A                                                                                                                                                                                            | MZ                                                                        | 0                              | exe<br>dll                                                                                                                               | DOS MZ 可执行文件格式及其后代（包括 NE 和 PE）                                                                                                                                       |
| 50 4B 03 04<br><br><br><br><br>50 4B 05 06<br><br>（空档案）<br><br><br>50 4B 07 08<br><br>（跨档案）                                                                                            | PK ..                                                                     | 0                              | zip<br>aar<br>apk<br>docx<br>epub<br>ipa<br>jar<br>kmz<br>maff<br>odp<br>ods<br>odt<br>pk3<br>pk4<br>pptx<br>usdz<br>vsdx<br>xlsx<br>xpi | zip 文件格式以及基于该格式的文件，例如 EPUB，JAR，ODF，OOXML                                                                                                                         |
| 52 61 72 21 1A 07 00                                                                                                                                                                             | ar！<br><br><br>                                                          | 0                              | rar                                                                                                                                      | RAR 存档 1.50 版及更高版本[11]                                                                                                                                                       |
| 52 61 72 21 1A 07 01 00                                                                                                                                                                          | ar！                                                                      | 0                              | rar                                                                                                                                      | RAR 存档版本 5.0 及更高版本[12]                                                                                                                                                      |
| 5A 4D                                                                                                                                                                                            | ZM                                                                        | 0                              | exe                                                                                                                                      | DOS ZM 可执行文件格式及其后代（稀有）                                                                                                                                                |
| 7F 45 4C 46                                                                                                                                                                                      | .ELF                                                                      | 0                              |                                                                                                                                          | 可执行和可链接格式                                                                                                                                                                   |
| 89 50 4E 47 0D 0A 1A 0A                                                                                                                                                                          | PNG ...                                                                   | 0                              | png                                                                                                                                      | 以可移植网络图形格式编码的图像[13]                                                                                                                                                   |
| C9                                                                                                                                                                                               | È                                                                         | 0                              | com                                                                                                                                      | 具有覆盖层的 CP / M 3 及更高版本                                                                                                                                                     |
| CA FE BA BE                                                                                                                                                                                      | ¾º¾                                                                       | 0                              | class                                                                                                                                    | Java 类文件，Mach-O Fat Binary                                                                                                                                                       |
| EF BB BF                                                                                                                                                                                         | ï»¿                                                                       | 0                              |                                                                                                                                          | UTF-8 编码的 Unicode 字节顺序标记，通常在文本文件中看到.                                                                                                                             |
| FE ED FA CE                                                                                                                                                                                      | ........                                                                  | 00x1000                        |                                                                                                                                          | Mach-O 二进制文件（32 位）                                                                                                                                                           |
| FE ED FA CF                                                                                                                                                                                      | ........                                                                  | 00x1000                        |                                                                                                                                          | Mach-O 二进制文件（64 位）                                                                                                                                                           |
| FE ED FE ED                                                                                                                                                                                      | þíþí                                                                      | 0                              |                                                                                                                                          | JKS JavakeyStore                                                                                                                                                                     |
| CE FA ED FE                                                                                                                                                                                      | ........                                                                  | 0                              |                                                                                                                                          | Mach-O 二进制（反向字节排序方案，32 位）                                                                                                                                             |
| CF FA ED FE                                                                                                                                                                                      | ........                                                                  | 0                              |                                                                                                                                          | Mach-O 二进制（反向字节排序方案，64 位）                                                                                                                                             |
| FF FE                                                                                                                                                                                            | ..                                                                        | 0                              |                                                                                                                                          | 以 Little-Endian 16 位 Unicode 传输格式编码的文本文件的字节顺序标记                                                                                                                  |
| FF FE 00 00                                                                                                                                                                                      | ....                                                                      | 0                              |                                                                                                                                          | 以 Little-Endian 32 位 Unicode 传输格式编码的文本文件的字节顺序标记                                                                                                                  |
| 25 21 50 53                                                                                                                                                                                      | ％！PS                                                                    | 0                              | ps                                                                                                                                       | PostScript 文件                                                                                                                                                                      |
| 49 54 53 46 03 00 00 00 60 00 00 00                                                                                                                                                              | ITSF ....`...                                                             | 0                              | chm                                                                                                                                      | MS Windows HtmlHelp 数据                                                                                                                                                             |
| 25 50 44 46 2d                                                                                                                                                                                   | ％PDF-                                                                    | 0                              | pdf                                                                                                                                      | PDF 文件[16]                                                                                                                                                                         |
| 30 26 B2 75 8E 66 CF 11A6 D9 00 AA 00 62 CE 6C                                                                                                                                                   | 0＆²u.fÏ.β.b.l                                                            | 0                              | asf<br>wma<br>wmv                                                                                                                        | 先进的系统格式[17]                                                                                                                                                                   |
| 24 53 44 49 30 30 30 31                                                                                                                                                                          | $ SDI0001                                                                 | 0                              |                                                                                                                                          | 系统部署映像，Microsoft 使用的磁盘映像格式                                                                                                                                           |
| 4F 67 67 53                                                                                                                                                                                      | OggS                                                                      | 0                              | OGG<br>OGA<br>OGV                                                                                                                        | Ogg，一种开源媒体容器格式                                                                                                                                                            |
| 38 42 50 53                                                                                                                                                                                      | 8BPS                                                                      | 0                              | psd                                                                                                                                      | Photoshop 文档文件，Adobe Photoshop 的本机文件格式                                                                                                                                   |
| 52 49 46 46 ?? ?? ?? ?? 57 41 56 45                                                                                                                                                              | RIFF ...WAVE                                                              | 0                              | wav                                                                                                                                      | 波形音频文件格式                                                                                                                                                                     |
| 52 49 46 46 ?? ?? ?? ?? 41 56 49 20                                                                                                                                                              | RIFF ...AVI.                                                              | 0                              | avi                                                                                                                                      | 音频视频交错视频格式                                                                                                                                                                 |
| FF FB<br><br><br><br><br>FF F3<br><br><br><br><br>FF F2<br><br><br>                                                                                                                              | ÿû<br><br><br><br><br>ÿ<br><br><br><br><br>ÿò<br><br><br>                 | 0                              | mp3                                                                                                                                      | MPEG-1 第 3 层文件，不带有 ID3 标签或带有 ID3v 1 标签（附加在文件末尾）                                                                                                              |
| 49 44 33                                                                                                                                                                                         | ID3                                                                       | 0                              | mp3                                                                                                                                      | 带有 ID3v2 容器的 MP3 文件                                                                                                                                                           |
| 42 4D                                                                                                                                                                                            | BM                                                                        | 0                              | bmp<br>dib                                                                                                                               | BMP 文件，一种位图格式，主要用于 Windows 世界                                                                                                                                        |
| 43 44 30 30 31                                                                                                                                                                                   | CD001                                                                     | 0x8001<br>0x8801<br>0x9001     | iso                                                                                                                                      | ISO9660 CD / DVD 映像文件[18]                                                                                                                                                        |
| 53 49 4D 50 4C 45 20 20<br><br>3D 20 20 20 20 20 20 2020 20 20 20 20 20 20 2020 20 20 20 20 54                                                                                                   | SIMPLET Ť                                                                 | 0                              | fits                                                                                                                                     | 柔性图像传输系统（FITS）[19]                                                                                                                                                         |
| 66 4C 61 43                                                                                                                                                                                      | fLaC                                                                      | 0                              | flac                                                                                                                                     | 免费的无损音频编解码器[20]                                                                                                                                                           |
| 4D 54 68 64                                                                                                                                                                                      | MThd                                                                      | 0                              | mid<br>MIDI                                                                                                                              | MIDI 声音文件[21]                                                                                                                                                                    |
| D0 CF 11 E0 A1 B1 1A E1                                                                                                                                                                          |                                                                           | 0                              | doc<br>xls<br>ppt<br>msg                                                                                                                 | 复合文件二进制格式，一种较旧版本的 Microsoft Office 用于文档的容器格式.[22]但是，它也是其他程序使用的一种开放格式.                                                                   |
| 64 65 78 0A 30 33 35 00                                                                                                                                                                          | dex.035.                                                                  | 0                              | dex                                                                                                                                      | Dalvik 可执行文件                                                                                                                                                                    |
| 4B 44 4D                                                                                                                                                                                         | KDM                                                                       | 0                              | vmdk                                                                                                                                     | VMDK 文件[23] [24]                                                                                                                                                                   |
| 43 72 32 34                                                                                                                                                                                      | Cr24                                                                      | 0                              | crx                                                                                                                                      | Google Chrome 扩展程序[25]或打包的应用程序[26]                                                                                                                                       |
| 41 47 44 33                                                                                                                                                                                      | AGD3                                                                      | 0                              | fh8                                                                                                                                      | FreeHand 8 文档[27] [28] [29]                                                                                                                                                        |
| 05 07 00 00 42 4F 42 4F05 07 00 00 00 00 00 0000 00 00 00 00 01                                                                                                                                  | .... BOBO............                                                     | 0                              | w                                                                                                                                        | AppleWorks 5 文档                                                                                                                                                                    |
| 06 07 E1 00 42 4F 42 4F06 07 E1 00 00 00 00 0000 00 00 00 00 01                                                                                                                                  | .... BOBO............                                                     | 0                              | w                                                                                                                                        | AppleWorks 6 文档                                                                                                                                                                    |
| 45 52 02 00 00 00<br><br>8B 45 52 02 00 00 00                                                                                                                                                    | ER ....<br><br>ERER ..                                                    | 0                              | toast                                                                                                                                    | Roxio Toast 光盘映像文件，还有一些.dmg 文件以相同的字节开头                                                                                                                          |
| 78 01 73 0D 62 62 60                                                                                                                                                                             | xsbb`                                                                     | 0                              | dmg                                                                                                                                      | 苹果磁盘映像文件                                                                                                                                                                     |
| 78 61 72 21                                                                                                                                                                                      | ！                                                                        | 0                              | ar                                                                                                                                       | 可扩展的存档格式[30]                                                                                                                                                                 |
| 50 4D 4F 43 43 4D 4F 43                                                                                                                                                                          | PMOCCMOC                                                                  | 0                              | t                                                                                                                                        | Windows 文件和设置传输存储库[31]另请参见 USMT 3.0（Win XP）[32]和 USMT 4.0（Win 7）[33]用户指南                                                                                      |
| 4E 45 53 1A                                                                                                                                                                                      | NES                                                                       | 0                              | nes                                                                                                                                      | 任天堂娱乐系统 ROM 文件[34]                                                                                                                                                          |
| 75 73 74 61 72 00 30 30<br><br>75 73 74 61 72 20 20 00                                                                                                                                           | ustar.00<br><br>ustar.                                                    | 0x101                          | tar                                                                                                                                      | tar 存档[35]                                                                                                                                                                         |
| 4F 41 52 ??                                                                                                                                                                                      | OAR.                                                                      | 0                              | oar                                                                                                                                      | OAR 文件归档格式，其中?? 是格式版本.                                                                                                                                                 |
| 74 6F 78 33                                                                                                                                                                                      | TOX                                                                       | 0                              | tox                                                                                                                                      | 开源便携式体素文件[36]                                                                                                                                                               |
| 4D 4C 56 49                                                                                                                                                                                      | MLVI                                                                      | 0                              | MLV                                                                                                                                      | 魔术灯笼视频文件[37]                                                                                                                                                                 |
| 44 43 4D 01 50 41 33 30                                                                                                                                                                          | DCM PA30                                                                  | 0                              |                                                                                                                                          | Windows 更新二进制增量压缩[38]                                                                                                                                                       |
| 37 7A BC AF 27 1C                                                                                                                                                                                | 7z¼'                                                                      | 0                              | 7z                                                                                                                                       | 7 压缩文件格式                                                                                                                                                                       |
| 1F 8B                                                                                                                                                                                            | ..                                                                        | 0                              | gz<br>tar.gz                                                                                                                             | GZIP 压缩文件[39]                                                                                                                                                                    |
| FD 37 7A 58 5A 00                                                                                                                                                                                | ²7zXZ..                                                                   | 0                              | xz<br>tar.xz                                                                                                                             | <br>使用 LZMA2 压缩的 XZ 压缩实用程序                                                                                                                                                |
| 04 22 4D 18                                                                                                                                                                                      | .“ M.                                                                     | 0                              | lz4                                                                                                                                      | LZ4 帧格式[40]<br>注意：LZ4 块格式不提供任何魔术字节.[41]                                                                                                                            |
| 4D 53 43 46                                                                                                                                                                                      | MSCF                                                                      | 0                              | cab                                                                                                                                      | Microsoft Cabinet 文件                                                                                                                                                               |
| 53 5A 44 44 88 F0 27 33                                                                                                                                                                          | SZDD....                                                                  | 0                              | 各种.（用下划线替换原始文件扩展名的最后一个字符，例如 setup.exe 变为 setup.ex\_.）                                                       | Windows XP 之前使用的 Microsoft 量子格式的压缩文件.可以使用 Windows 早期版本分发的 Extract.exe 或 Expand.exe 对文件进行解压缩.                                                       |
| 46 4C 49 46                                                                                                                                                                                      | FLIF                                                                      | 0                              | 弗利夫                                                                                                                                   | 免费无损图像格式                                                                                                                                                                     |
| 1A 45 DF A3                                                                                                                                                                                      | .Eß£                                                                      | 0                              | mkv<br>mka<br>mks<br>mk3d<br>webm                                                                                                        | Matroska 媒体容器，包括 WebM                                                                                                                                                         |
| 4D 49 4C 20                                                                                                                                                                                      | MIL                                                                       | 0                              | g                                                                                                                                        | “ SEAN：会话分析”培训文件.也用于兼容软件“ Rpw：Windows 的 Rowperfect ”和“ RP3W：Windows 的 ROWPERFECT3”.                                                                             |
| 41 54 26 54 46 4F 52 4D ?? ?? ?? ?? 44 4A 56                                                                                                                                                     | AT＆TFORM .... DJV                                                        | 0                              | DjVu 的<br>DJV                                                                                                                           | DjVu 文档<br>以下字节是`55`（`U`）单页文档或`4D`（`M`）多页文档.                                                                                                                     |
| 30 82                                                                                                                                                                                            | 0.                                                                        | 0                              | der                                                                                                                                      | DER 编码的 X.509 证书                                                                                                                                                                |
| 44 49 43 4D                                                                                                                                                                                      | DICM                                                                      | 0x80                           | dcm                                                                                                                                      | DICOM 医疗文件格式                                                                                                                                                                   |
| 77 4F 46 46                                                                                                                                                                                      | wOFF                                                                      | 0                              | woff                                                                                                                                     | WOFF 档案格式 1.0                                                                                                                                                                    |
| 77 4F 46 32                                                                                                                                                                                      | wOF2                                                                      | 0                              | woff2                                                                                                                                    | WOFF 档案格式 2.0                                                                                                                                                                    |
| 3c 3f 78 6d 6c 20                                                                                                                                                                                | <？xml                                                                    | 0                              | XML                                                                                                                                      | 使用 ASCII 字符编码 时的可扩展标记语言                                                                                                                                               |
| 00 61 73 6d                                                                                                                                                                                      | .asm                                                                      | 0                              | wasm                                                                                                                                     | WebAssembly 二进制格式[42]                                                                                                                                                           |
| cf 84 01                                                                                                                                                                                         |                                                                           | 0                              | LEP                                                                                                                                      | Lepton 压缩的 JPEG 图像[43]                                                                                                                                                          |
| 43 57 53<br><br>46 57 53                                                                                                                                                                         | CWSFWS                                                                    | 0                              | swf                                                                                                                                      | flash .swf                                                                                                                                                                           |
| 21 3C 61 72 63 68 3E                                                                                                                                                                             | ！<arch>.                                                                 | 0                              | deb                                                                                                                                      | linux deb 文件                                                                                                                                                                       |
| 52 49 46 46 ?? ?? ?? ?? 57 45 42 50                                                                                                                                                              | RIFF ...WEBP                                                              | 0                              | webp                                                                                                                                     | Google WebP 图像文件，其中?? ?? ?? ?? 是文件大小.有关 WebP 文件头的更多信息                                                                                                          |
| 27 05 19 56                                                                                                                                                                                      | '..V                                                                      | 0                              |                                                                                                                                          | U-Boot / uImage.Das U-Boot 通用引导加载程序.[44]                                                                                                                                     |
| 7B 5C 72 74 66 31                                                                                                                                                                                | {\ rtf1                                                                   | 0                              | rtf                                                                                                                                      | 富文本格式                                                                                                                                                                           |
| 54 41 50 45                                                                                                                                                                                      | TAPE                                                                      | 0                              |                                                                                                                                          | Microsoft 磁带格式                                                                                                                                                                   |
| 47                                                                                                                                                                                               | G                                                                         | 00xBC0x178...（每 188 个字节） | tstvtsa                                                                                                                                  | MPEG 传输流（MPEG-2 第 1 部分）                                                                                                                                                      |
| 00 00 01 BA                                                                                                                                                                                      | ....                                                                      | 0                              | m2pVOB                                                                                                                                   | MPEG 节目流（MPEG-1 第 1 部分（基本相同）和 MPEG-2 第 1 部分）                                                                                                                       |
| 00 00 01 BA<br><br>47<br><br>00 00 01 B3                                                                                                                                                         | ....<br><br>G<br><br>....                                                 | 0                              | mpgmpeg                                                                                                                                  | MPEG 节目流 MPEG 传输流 MPEG-1 视频和 MPEG-2 视频（MPEG-1 第 2 部分和 MPEG-2 第 2 部分）                                                                                             |
| 00 00 00 18 66 74 79 70 69 73 6F 6D                                                                                                                                                              | typisom                                                                   | 4                              | mp4                                                                                                                                      | ISO 基本媒体文件（MPEG-4）                                                                                                                                                           |
| 78 01<br><br><br><br><br>78 5E<br><br><br><br><br>78 9C<br><br><br><br><br>78 DA<br><br><br><br><br>78 20<br><br><br><br><br>78 7D<br><br><br><br><br>78 BB<br><br><br><br><br>78 F9<br><br><br> | ....                                                                      | 0                              | zlib                                                                                                                                     | 无压缩（无预设字典）最佳速度（无预设字典）默认压缩（无预设字典）最佳压缩（无预设字典）无压缩（带有预设字典）最佳速度（带有预设词典）默认压缩（带有预设字典）最佳压缩（带有预设字典） |
| 62 76 78 32                                                                                                                                                                                      | bvx2                                                                      | 0                              | z                                                                                                                                        | LZFSE-使用有限状态熵编码的 Lempel-Ziv 样式数据压缩算法.苹果公司的 OSS.[45]                                                                                                           |
| 4 楼 52 43                                                                                                                                                                                       | ORC                                                                       | 0                              | orc                                                                                                                                      | Apache ORC（优化行列）文件格式                                                                                                                                                       |
| 4F 62 6A 01                                                                                                                                                                                      | Obj.                                                                      | 0                              | avro                                                                                                                                     | Apache Avro 二进制文件格式                                                                                                                                                           |
| 53 45 51 36                                                                                                                                                                                      | SEQ6                                                                      | 0                              | rc                                                                                                                                       | RCFile 列式文件格式                                                                                                                                                                  |
| 65 87 78 56                                                                                                                                                                                      | x                                                                         | 0                              | 25t                                                                                                                                      | PhotoCap 对象模板                                                                                                                                                                    |
| 55 55 aa aa                                                                                                                                                                                      | UU¬¬                                                                      | 0                              | pcv                                                                                                                                      | PhotoCap 矢量                                                                                                                                                                        |
| 78 56 34                                                                                                                                                                                         | xV4                                                                       | 0                              | pbt,pdt,pea,peb,pet,pgt,pict,pjt,pkt,pmt                                                                                                 | PhotoCap 模板                                                                                                                                                                        |
| 50 41 52 31                                                                                                                                                                                      | PAR1                                                                      | 0                              |                                                                                                                                          | Apache Parquet 列式文件格式                                                                                                                                                          |
| 45 4D 58 32                                                                                                                                                                                      | EMX2                                                                      | 0                              | ez2                                                                                                                                      | 仿真器 Emaxsynth 样本                                                                                                                                                                |
| 45 4D 55 33                                                                                                                                                                                      | EMU3                                                                      | 0                              | ez3iso                                                                                                                                   | 仿真器 III 合成器样本                                                                                                                                                                |
| 1B 4C 75 61                                                                                                                                                                                      | .Lua                                                                      | 0                              | luac                                                                                                                                     | Lua 字节码[46]                                                                                                                                                                       |
| 62 6F 6F 6B 00 00 00 00 6D 61 72 6B 00 00 00 00                                                                                                                                                  | book....mark....                                                          | 0                              | alias                                                                                                                                    | macOS 文件别名[47]（符号链接）                                                                                                                                                       |
| 5B 5A 6F 6E 65 54 72 61 6E 73 66 65 72 5D                                                                                                                                                        | [ZoneTransfer]                                                            | 0                              | Identifier                                                                                                                               | URL 安全区域的 Microsoft 区域标识符[48]                                                                                                                                              |
| 52 65 63 65 69 76 65 64                                                                                                                                                                          | Received:                                                                 | 0                              | eml                                                                                                                                      | 电子邮件 var5 [49]                                                                                                                                                                   |
| 20 02 01 62 A0 1E AB 07 02 00 00 00                                                                                                                                                              | ..b.«.....                                                                | 0                              | tde                                                                                                                                      | Tableau 数据源                                                                                                                                                                       |
| 37 48 03 02 00 00 00 00 58 35 30 39 4B 45 59                                                                                                                                                     | 7H......X509KEY                                                           | 0                              | kdb                                                                                                                                      | KDB 文件                                                                                                                                                                             |
| 85 ?? ?? 03                                                                                                                                                                                      | ..                                                                        | 0                              | p                                                                                                                                        | PGP 文件[50]                                                                                                                                                                         |
| 28 B5 2F FD                                                                                                                                                                                      | （µ /ý                                                                    | 0                              | st                                                                                                                                       | Zstandard 压缩文件[51] [52]                                                                                                                                                          |
| 3A 29 0A                                                                                                                                                                                         | :).                                                                       | 0                              | ml                                                                                                                                       | 微笑文件                                                                                                                                                                             |
| 4A 6F 79 21                                                                                                                                                                                      | Joy!                                                                      | 0                              |                                                                                                                                          | 首选可执行格式                                                                                                                                                                       |
| 31 0A 30 30                                                                                                                                                                                      | 1.00                                                                      | 0                              | srt                                                                                                                                      | SubRip 文件                                                                                                                                                                          |
| 34 12 AA 55                                                                                                                                                                                      | 4.ª                                                                       | 0                              | vpk                                                                                                                                      | VPK 文件，用于存储某些 Source Engine 游戏的 游戏数据                                                                                                                                 |
| 58 46 49 52                                                                                                                                                                                      | XFIR                                                                      | 0                              | dcr                                                                                                                                      | Adobe Shockwave                                                                                                                                                                      |
